:020000040800F2
:10000000E8090020ED0100083D4100085D390008C5
:1000100039410008AD090008E94E00080000000061
:100020000000000000000000000000004541000842
:10003000610A000800000000414100084941000831
:10004000070200080702000807020008070200086C
:10005000070200080702000807020008070200085C
:10006000070200080702000807020008B10900089B
:10007000BD090008C90900085D0A00080702000858
:1000800007020008000000002D0800080702000811
:10009000070200080702000807020008070200081C
:1000A000070200080702000807020008070200080C
:1000B00007020008D94200080702000807020008EA
:1000C00007020008070200080702000807020008EC
:1000D00007020008DD4E00080702000807020008BA
:1000E00007020008070200080702000807020008CC
:1000F00007020008070200080702000800000000CD
:1001000000000000070200080000000007020008CD
:1001100007020008000000000702000807020008AC
:10012000070200080702000807020008070200088B
:10013000070200080000000000000000070200089D
:10014000070200080702000800000000000000008D
:10015000000000000000000000000000000000009F
:10016000000000000000000000000000070200087E
:10017000070200080000000000000000000000006E
:10018000000000000702000800000000000000005E
:10019000000000000000000000000000000000005F
:1001A000000000000000000007020008070200082D
:1001B000070200080702000807020008000000000C
:1001C000000000000702000800000000000000001E
:1001D0000702000807020008DFF80CD000F00EFB51
:1001E0000048004709570008E809002006488047F2
:1001F00006480047FEE7FEE7FEE7FEE7FEE7FEE70C
:10020000FEE7FEE7FEE7FEE7C5420008D901000869
:100210002DE9F05F0546002092469B46884606463B
:10022000814640241BE0284641464746224600F0CE
:100230002EFA53465A46C01A914110D31146184619
:10024000224600F015FA2D1A67EB01084F462246A8
:100250000120002100F00CFA17EB00094E41201E8E
:10026000A4F10104DFDC484631462A464346BDE896
:10027000F09FD2B201E000F8012B491EFBD270477B
:100280000022F6E710B513460A4604461946FFF762
:10029000F0FF204610BD2DE9FE4F804681EA0300A5
:1002A000C00F0C46009021F0004123F00045B8EB50
:1002B0000200A94105D24046214690461C460B4605
:1002C000024623F00040104347D0270DC7F30A0031
:1002D000C3F30A510290401A019040286BDAC3F32D
:1002E000130040F4801B0098924620B10023D2EB0B
:1002F000030A63EB0B0B01985946C0F140025046CC
:1003000000F0B6F906460D4650465946019A00F0EF
:10031000CEF910EB08006141002487EA115284EA0B
:10032000E7731A4340D0009A62B3019A012A4FEA58
:10033000075215DC001B61EB02014FF0004202EA9C
:100340000752CDE90042001C41F5801132462B4690
:1003500000F005FA03B0BDE8F08F40462146F9E70A
:10036000001B61EB0201001C41F5801300185B418A
:100370002018A2F5001747EB030140EAD570B61923
:100380006D4111E06D084FEA360645EAC0754FEA47
:100390000752001B61EB0201001C41F58011490866
:1003A0004FEA30000019514132462B4603B0BDE8F8
:1003B000F04F00F0C5B90098012240000023D0EBB7
:1003C000020263EBE073009821464FEAE074B8EB59
:1003D000000061EB0401E9E783F000435BE781F093
:1003E000004158E72DE9FE4F81EA030404F0004480
:1003F00021F0004100944FF0000B23F0004350EA3D
:1004000001045ED052EA03045BD0C3F30A54C1F383
:100410000A552C44A4F2F3340194A0FB0254C1F316
:10042000130141F48011C3F3130343F4801301FB60
:10043000024400FB034E840A970A44EA815447EAC7
:100440008357A4FB076802958D0A05FB07854FEAD1
:10045000932C04FB0C542705029D4FEA065847EAEB
:100460001637B5EB08056EEB070C870E920E47EAC0
:10047000811742EA8312A7FB0201B6EB0B0164EB82
:1004800000042B0D43EA0C335E1844EB1C50DA4693
:100490005146E7FB0201C5F313044FEA0B3343EA6D
:1004A00014534FEA0432019C43EA0603A4F10C04FE
:1004B0000294009CCDE900B400F051F903B0BDE80E
:1004C000F08F00200146F9E72DE9F04D81EA0304A1
:1004D00004F0004B21F0004514464FF0000A23F0D1
:1004E000004150EA050220D054EA01021DD0C5F3B4
:1004F0000A570246C5F31303C1F31300C1F30A56AA
:1005000040F4801543F48013A7EB0608101BD64671
:1005100008F2FD3873EB050002D308F1010801E091
:1005200092185B41B8F1000F03DA00200146BDE8E4
:10053000F08D00204FF48011064684460EE0171B14
:1005400073EB050705D3121B63EB050306434CEA67
:10055000010C49084FEA300092185B4150EA01074C
:10056000EDD152EA030012D082EA040083EA0501C9
:10057000084305D0101BAB4106D20122002306E040
:1005800000224FF0004302E06FF0010253101AEB1B
:1005900006004CEB085110EB0A0041EB0B01BDE8E3
:1005A000F04D00F0CDB830B5041E71F1000404DB4D
:1005B0004FF00044404264EB0101141E73F100044B
:1005C00005DB1C464FF00043524263EB0403101A54
:1005D0008B4101D2012030BD002030BD30B5041E5A
:1005E00071F1000404DB4FF00044404264EB010170
:1005F000141E73F1000405DB1C464FF00043524209
:1006000063EB0403801A994101D2012030BD002020
:1006100030BD00F0004230F000400AD0C10D01F5BD
:100620006071C0F3160042EA0151C208400711434D
:10063000704700200146704701F0004330B421F0BC
:10064000004150EA010206D00A0DA2F56072C1F322
:100650001301002A02DC30BC00207047440F44EA3A
:10066000C104C100E01830BC00EBC25000F031B84A
:10067000202A04DB203A00FA02F100207047914062
:10068000C2F1200320FA03F3194390407047202A57
:1006900004DB203A21FA02F00021704721FA02F32C
:1006A000D040C2F120029140084319467047202AE9
:1006B00006DBCB17203A41FA02F043EAE07306E08A
:1006C00041FA02F3D040C2F120029140084319469A
:1006D00070470029A8BF7047401C490008BF20F0A0
:1006E0000100704710B4B0FA80FC00FA0CF050EA38
:1006F000010404BF10BC704749B1CCF1200421FAB9
:1007000004F411FA0CF118BF012121430843A3EBB3
:100710000C01CB1D4FEA00614FEA102042BF0020C0
:1007200010BC704700EBC35010440029A4BF10BC9C
:100730007047401C490008BF20F0010010BC704702
:1007400010B5141E73F1000408DA401C41F10001D9
:1007500092185B411A4301D120F0010010BD2DE930
:10076000F04D92469B4611B1B1FA81F202E0B0FA27
:1007700080F220329046FFF77BFF04460F4640EAA6
:100780000A0041EA0B0153465A46084313D011466A
:1007900053EA010019D0C8F140025046FFF777FF35
:1007A00005460E46504659464246FFF761FF08434C
:1007B00005D0012004E020463946BDE8F08D002038
:1007C000054346EAE0762C4337430A986305E40A7A
:1007D000A0EB08000022FD0A44EA47540A3002D583
:1007E00000200146E9E7010510196941DDE90845E6
:1007F00000196941BDE8F04DA2E700001CB50948A9
:100800000090094801900546009C06E0E06840F031
:10081000010394E8070098471034AC42F6D3FFF781
:10082000DFFC0000186300083863000840F2501035
:10083000C2F2000000F032BEB0B5016804468A681A
:100840008868C0074FF0000031D012F0020218BFD4
:10085000B0BD886800F00D0001281FD188684FF6F0
:10086000C072C7F6FF721040023088600320086033
:1008700001F078FB21688968C90704BF0020B0BD7A
:10088000054602E08068C00712D001F06BFB411BF7
:1008900020680329F6D38168C907F3D0E06D40F0E2
:1008A0001000E065206E40F0010020660120B0BD20
:1008B0000020B0BD70B582B00446002001902168D0
:1008C0008A68D20711D14FF6C076C7F6FF768868DE
:1008D00006F17F0210420BD0E06D40F01000E065A1
:1008E000206E40F001002066012002B070BD00BF04
:1008F0008868304040F00100886040F20830C5F25E
:1009000000000068000221D401F02CFB21680A6875
:10091000D20717D1054602E00868C00712D18868DF
:10092000C00704D18868304040F00100886001F0C1
:1009300019FB401B21680328EED30868C007EBD1E0
:10094000CAE700BF002002B070BD00BF40F2400007
:10095000C2F20000006842F663518009C0F23E51C5
:10096000A0FB0101880900EB40000C2101EB800095
:10097000019001980028C7D0019801380190019892
:100980000028C1D001980138019001980028BBD0FF
:1009900001980138019001980028B5D001980138DC
:1009A000019001980028E7D1AEE70000FEE70000C3
:1009B00040F2BC10C2F2000001F082B840F21C20EC
:1009C000C2F2000001F07CB8B0B53025C4F20205D7
:1009D00055F8300C800558BFB0BD40F20044C4F655
:1009E00000044FF4007045F82C0CA06140F2DC309C
:1009F000C2F20000017869B140F24410C2F2000076
:100A0000008840F2481100BA000CC2F200010880D0
:100A100002E000BF0121017020464FF4806101F027
:100A200093FA2868022120F001002860686920F00C
:100A300001006861686861F30F006860A86961F38C
:100A40000F00A861286840F001002860686940F044
:100A5000010068614FF40070A062B0BD70470000F3
:100A600070470000EFF3108072B600BFFEE7000091
:100A7000B0B582B004460020019094F858000128D7
:100A800002D1022002B0B0BD012084F858002046F7
:100A90000D46FFF7D1FEE16D10B141F010014BE0C2
:100AA00041F2021291430231E16521684FF6C073B1
:100AB000D1F808C0C3F6FF7303EA0C0305F08045C4
:100AC0004DF601622B44C0F2040203F100438B6037
:100AD0008B68B3F1FF3F2BDC019B01330193019B3A
:100AE00093421DD88B68B3F1FF3F21DC019B01339A
:100AF0000193019B934213D88B68B3F1FF3F17DC3E
:100B0000019B01330193019B934209D88B68B3F198
:100B1000FF3F0DDC019B01330193019B9342D7D929
:100B2000E06D40F0100020F00201012004E000BF61
:100B3000E16D012262F30101E165002184F85810A2
:100B400002B0B0BD704700002DE9F04181B0002235
:100B5000009290F85820012A06D14FF0020C60460E
:100B600001B0BDE8F08100BF4269012380F8583030
:100B700012B10B6A012B21D14A68092A1AD10A68DD
:100B80008B6A4FF4785606EA524223B1CE6A03F0DC
:100B90007C0333431A43D0F8008044F20005D8F8B0
:100BA0004C60C0F210452E401643C8F84C604266B7
:100BB0002EE000BFD0F800802AE000BF846E1CB198
:100BC000456E00220AE000BF8D6A5A1E25B1CE6A2A
:100BD00005F07C052E43324300251C46D1E9003642
:100BE000D0F8008006F01F06C3F38463B3401A43B5
:100BF000661E42EA0502C0E9192609D1D8F84C6000
:100C000044F20005C0F210452E403243C8F84C2093
:100C1000D8F80820120714D4D8F80C2091F82560D1
:100C200091F8265022F440124FEA455516B12A4356
:100C300005E000BF91F8246042EA06522A43C8F852
:100C40000C20D8F80820D8F8086002F0040206F05A
:100C50000806921916D18A6AC2B1CA6AB2B191F86D
:100C60002520012A1CD1C26D4FF0010C42F0200258
:100C7000C26591F83060D8F81020012E1ED022F005
:100C8000020223E04FF0000CE9E000BF91F825607C
:100C9000D8F80C20012E05D142F0007204E000BF0C
:100CA000D8F80C2022F000724FF0000CC8F80C208D
:100CB00091F83060D8F81020012EE0D1D1E90D650F
:100CC00022F4FF7232432A4342F00202C8F8102095
:100CD0000D68042608F1140206EAD55EC5F34066E5
:100CE0008C6852F82660C5F304550727AF40B4F16D
:100CF000004F26EA070605D142F80E60126842F05E
:100D0000004206E0AC40344342F80E40126822F044
:100D10000042C8F81420D1E90425D8F80C60042A50
:100D200070D1D8F86020D8F860200C68C2F38466CF
:100D300094FAA4F52246B5FA85F5C4F3846E6FF3F0
:100D4000DF422C46002A08BF7446A6424FF6FF74C5
:100D5000C0F207040ED1D8F8602022F00042C8F893
:100D600060200D6805EA0402C5F3846E95FAA5F5C6
:100D7000B5FA85F5D8F86460D8F86460002AC6F33F
:100D800084662F4608BF7746BE420ED1D8F864204D
:100D900022F00042C8F864200D6805EA0402C5F399
:100DA000846E95FAA5F5B5FA85F5D8F86860D8F897
:100DB0006860002AC6F384662F4608BF7746BE42A5
:100DC0000ED1D8F8682022F00042C8F868200D68DB
:100DD00005EA040295FAA5F4C5F3846EB4FA84F525
:100DE000D8F86C40D8F86C40002AC4F3846408BF7B
:100DF0007546AC4233D1D8F86C2022F00042C8F8D6
:100E00006C202CE0062707EA960705FA07FE0E6815
:100E100008F1600555F822404FF20007C0F2FF3795
:100E200006F0F8463C404EEA0607274347F00047E5
:100E300045F822700A698F6955F8226026F080769D
:100E4000374345F822700A690F7F55F82260012F59
:100E500026F0007608BF06F1007645F82260D8F843
:100E600008200D68D2074ED1CF684FF6FF73D8F82F
:100E7000B0602A4607F01804C0F207036FF3DF42A0
:100E8000E34096432B4033430026C4F27F06B7422B
:100E9000C8F8B03037D18AB195FAA5F2B2FA82F229
:100EA000013202F01E03092B02F01F020FD80123AA
:100EB000934002EB420243EA025214E0012202EBA9
:100EC000956202F01E030A2B02F01F02EFD30123EA
:100ED0000027934002EB4202CFF6206707EB025255
:100EE0001A4342F00072C2F3406708EB87078B6831
:100EF0007E69C2F3045207259540AE4303FA02F21D
:100F000032437A610D680021C8F208010D4216D003
:100F100040F20831C5F200010C680022CCF2213207
:100F2000954204F0E07204D01023C9F2C0039D4240
:100F30000CD1B8F1A04F08BF14F4000316D0002163
:100F400080F85810604601B0BDE8F0810023CCF273
:100F500052739D4242D10023B3EB126F3ED1A1F5F3
:100F600002739845EBD04FF0807345E00B6823F097
:100F7000E0731A4342F400020A6040F24001C2F2F8
:100F80000001096842F663528909C0F23E52A1FB92
:100F90000212910901EB4101182202EB810100913B
:100FA00000990029CBD000BF009901390091009928
:100FB0000029C4D000990139009100990029BED0C0
:100FC00000990139009100990029B8D000990139A0
:100FD000009100990029E7D1B1E700BFA1F50273A4
:100FE0009845ACD00023CCF684339D4208BF14F45E
:100FF0008003A4D14FF480030F6827F0E0773B43D0
:101000001A430A609BE700002DE9F04F81B02DEDF7
:10101000048B006840F20011C5F20001884240F0E4
:10102000358140F20C17C2F200077868B0F5806F86
:1010300024DA40F250140130C2F2000478602046F5
:10104000092100F081F900EE100A97ED021AB8EEBE
:10105000400A31EE000A204640F20F1187ED020AE5
:1010600000F072F900EE100A97ED031AB8EE400A8C
:1010700031EE000A87ED030A14E000BF12D197EDAC
:10108000020A9FEDAD1A97ED032A012020EE010A16
:1010900022EE011A387040F2014087ED020A87ED16
:1010A000031A78603878012840F0F08040F250143C
:1010B000C2F200042046092100F046F938612046BA
:1010C00040F20F1100F040F997ED040A97ED021A73
:1010D000B8EE400A9FED998A30EE410A80EE080A88
:1010E0000646786197ED039A10EE100AFFF791FA21
:1010F0009FED8B0B54EC105B2A462346FFF772F9E9
:10110000FFF79AFA00EE106AB8EE400A30EE490A8C
:1011100080EE080A0646B86110EE100AFFF779FA69
:101120002A462346FFF75EF9FFF786FA8046F86104
:101130003046FFF76EFA9FED7C0B59EC10AB524630
:101140004B46FFF7C1F99FED7A0B55EC106B324619
:101150002B46FFF7B9F9FFF76FFA40F2CC3BC2F22A
:10116000000B044608EE100ACBF800004046FFF7DB
:1011700050FA52464B46FFF7A7F932462B46FFF787
:10118000A3F9FFF759FA00EE100A9FED6D1A38EE39
:10119000000A20EE010A9FED6B1A3C6240F24C14EB
:1011A00040F2E03628EE011AC2F20004C2F2000654
:1011B00031EE000A94ED001A96ED002A40F2D03587
:1011C00087ED090A31EE420AB1EE0C8AC2F200053F
:1011D00020EE080A286003F0F1FE94ED001A96ED67
:1011E000002A87ED0A0A31EE420A20EE080A03F0CF
:1011F0007DFE97ED091A97ED0A3A97ED084A40F2FD
:10120000C43640F2000421EE032A24EE005A20EEF8
:10121000011A24EE033AC2F20006C2F2000435EECF
:10122000022A31EE433AD6ED000A94ED001A87ED1A
:101230000B0AB0EE420A87ED0C2A87ED0D3A02F058
:101240008FFB97ED0D2A40F2C837C2F20007D7EDA9
:10125000000A94ED011A86ED000AB0EE420A02F08F
:101260007FFB40F2A830C2F20000017887ED000A4F
:101270000139042926D8DFE801F003170F251D00E6
:1012800090ED010A04F00CF81CE000BFBDEC048BEB
:1012900001B0BDE8F08F00BF90ED030AD0ED040A65
:1012A00004F03AF90EE000BF90ED020A04F0F0F805
:1012B00008E000BF90ED010AD0ED050A90ED061A96
:1012C00004F04EF840F2D830C2F2000000689BED06
:1012D000000A44F8080F40F2D430C2F2000095ED45
:1012E000001A006830EE012A33683F686060B1EE92
:1012F000422A40F2143084ED020A84ED032A84ED80
:10130000041AC2F2000021462022C4E90537BDECD0
:10131000048B01B0BDE8F04F02F0A8BA00BF00BFD7
:101320006666666666660A407B14AE47E17A743F7D
:1013300000000000000024400000803A00F07F45DB
:101340003ACD93BF3ACD133F006840F20F1291425D
:1013500010D040F21B32914208D040F21522914247
:1013600014BF802188214058704700BF8C2140580D
:10137000704700BF8421405870470000704700004C
:1013800070B540F20015C5F20005D5F808420168B5
:101390008A68120744BF022070BDCA68C96C11F484
:1013A000C07F07D1002A05D4C16D41F02001C1657D
:1013B000012070BD90F85810012904BF022070BDB3
:1013C000012180F858100646FFF774FA20B1002179
:1013D00086F8581070BD00BFF16D3046C90546BF94
:1013E000016E21F0080100210166C16D43F2010286
:1013F000914301F58051C165016804F01F0CA942B9
:1014000002D1BCF1000F03D1C36D23F48013C36577
:1014100060230B60002380F85830CB689B0203D513
:101420004B6843F480634B6083694E686FF0400201
:10143000082B08BF6FF0200202EA06024A604A68E1
:101440004FF0200308BF40231A43A9424A600DD140
:10145000BCF1000F0AD004F01E02062A06D0C16DAE
:1014600041F48011C165002070BD00BFC8688001D3
:1014700044BF002070BD88684FF6C072C7F6FF7287
:10148000104008308860002070BD000070470000E8
:101490007047000070470000704700002DE9F047DA
:1014A000016840F20018C5F200080E684D68D8F8CF
:1014B00008A20446B0070FD515F002000CD0E06D6D
:1014C000C00603D4E06D40F40060E0652046FFF7FD
:1014D00039FB21680220086070070AF01F0902D555
:1014E00015F0040004D1300750D515F008004DD098
:1014F000204650F85C2FD20603D4026842F40072F2
:101500000260CA6812F4406F3AD1A9F10507B9FA2E
:1015100089F3B7FA87F75B097F093B43A9F109070C
:10152000B7FA87F77F0941450A4643EA070308BF30
:101530004FF0A042DB07134618BF0B468A4208BF94
:101540001346DA6892041BD40A68120718D58A6811
:1015500052070BD44A6822F00C024A60016821F459
:10156000807101600168C90406D509E0E06D40F0B2
:101570001000E06504F16000016841F001010160C4
:101580002046FFF787FF21680C200860B00602D5CF
:1015900015F0200004D170062AD515F0400027D0A0
:1015A000204650F85C2FD20603D4026842F4005261
:1015B000026041450B460AF01E02CF6CD1F80CC008
:1015C00008BF4FF0A043062A1A4608BF0A46B9F1E1
:1015D000000F08BF0A468B4208BF1A46D36817F4AB
:1015E000C07F6BD02046FFF70FFD216860200860A8
:1015F00030060CD515F0800009D0E06D40F4803045
:10160000E065204600F0A0F9216880200860F00520
:101610000DD515F480700AD0E06D40F40030E0651F
:101620002046FFF733FF21684FF480700860B00553
:101630000DD515F400700AD0E06D40F48020E0650F
:101640002046FFF725FF21684FF400700860F00680
:101650001AD515F0100017D0E06B38B1B9F1000FB2
:101660004ED0D8F8080210F4604F0BD0E06D40F473
:101670008060E065206E40F0020020662046FFF7A3
:101680000BFF216810200860700558BFBDE8F08787
:1016900015F4806010D0E06D4FF4806240F480401B
:1016A000E065206E40F00800206620460A60BDE834
:1016B000F047FFF763BE00BFBDE8F0879A0106D58B
:1016C0000CF4406203F40057D2197FF48BAF0A6820
:1016D00052067FF587AF13F400127FF483AF8A6858
:1016E000120711D44A6822F060024A60016821F4AE
:1016F000805101600168C9053FF574AF0AE000BF81
:10170000C868C007B2D1BDE7E06D40F01000E065E9
:1017100004F16000016841F00101016062E700002E
:10172000B0B582B000210028019155D0C16D39B902
:10173000044600F00BF920460021216684F8581079
:101740000268916889004FF6C071C5F6FF7102D535
:1017500093680B4093609368DB002ED4936801F18B
:101760008051194041F08051916040F24001C2F235
:101770000001096842F663538909C0F23E53A1FB98
:1017800003139909022303EB410101910199A1B1CE
:10179000019901390191019979B1019901390191B9
:1017A000019951B1019901390191019929B1019929
:1017B0000139019101990029EAD19168C90011D438
:1017C000C16D4FF0010E41F01001C165016E41F095
:1017D0000101016608E000BF4FF0010E704602B043
:1017E000B0BD00BF4FF0000E9368C46D03F004035A
:1017F00004F010041B19C36D68D123F48173023304
:10180000C3659368DB071AD140F2083C4FF60054D9
:101810004FF60063C5F2000CCFF6FF74CFF6FF73EE
:101820005CF804405CF803302343DB0707D14368CE
:10183000DCF8004024F47C142343CCF80030437FD0
:10184000C46BD0E902C144EA4333194390F8243011
:1018500041EA0C01012B41EA034306D1816A0024CD
:10186000CFF6FE7404EB41410B43C46A24B1016B13
:1018700004F4787421430B43D16844F20704CFF693
:10188000F07421401943D1601169436B21F040612C
:10189000194311619168090743D490F83810037F08
:1018A000490041EA8331D36844F20204A343194357
:1018B000D160036914698BB144F480311161D2F8AD
:1018C000C01043F6FF74A1430B4310E043F0100235
:1018D0004FF0010EC265704602B0B0BD24F48031F5
:1018E0001161D2F8C01043F6FF7321EA0303C2F876
:1018F000C03090F84010136901290FD140F2FD71FA
:1019000023EA010CD0E91134D0E9131543EA0C03A2
:1019100023431943294341F0010301E023F001036C
:1019200013614169136B012923F00F0302D1016A8E
:1019300001390B431363C26D012161F30102C265DA
:10194000704602B0B0BD00007047000080B586B0A0
:10195000006840F20012C5F2000200219042CDE979
:101960000411CDE90211019102D006B080BD00BF83
:1019700041F24C00C4F20200C26B022363F31D72F9
:10198000C263026842F400520260026802F400522C
:101990000092009A026842F001020260006800F0C2
:1019A000010000900098502001900320CDE9020131
:1019B00001A94FF0904000F0EDF912200021002223
:1019C00000F048FB122000F033FB06B080BD0000A1
:1019D000014690F82500022828D180B50868D1E991
:1019E00010CE8A6C036823F00E030360136823F49F
:1019F00080731360026822F0010202600EF01F0083
:101A0000012202FA00F0CCF80400D1E91320506062
:101A1000486D30B1026822F480720260D1E916028A
:101A200042600020BDE8804003E000BF0420C8639E
:101A30000120012281F82520002281F8242070470E
:101A400090F82510022931D180B50168D0E910CE77
:101A5000826C0B6823F00E030B600B6823F001030C
:101A60000B60116821F4807111600EF01F020121DA
:101A700001FA02F2CCF80420D0E913325A60426D28
:101A800032B1136823F480731360D0E916235360D6
:101A900080F82510826B002180F824100AB190474D
:101AA0000021BDE880400846704700BF0421C163A3
:101AB0000121002280F8251080F824200846704774
:101AC000B0B5D0E910C30268DCF8001003F01F03C2
:101AD0000424D2F800E09C400C4218BF1EF004051C
:101AE00020D102249C400C4218BF1EF0020529D1CF
:101AF000D940090714D51EF0080108BFB0BD116810
:101B000021F00E011160012101FA03F2CCF804204A
:101B1000C16380F82510416B002280F8242069B948
:101B2000B0BD00BF1168890603D4116821F004011B
:101B30001160CCF80440016B0029F1D0BDE8B04041
:101B4000084700BF1168890606D4116821F00A0110
:101B50001160012180F82510CCF80440C16A0022F0
:101B6000002980F82420E9D1DAE7000000284FF0AE
:101B7000010100F085802DE9F04740F2000CC4F22D
:101B8000020C03684FF6F8320CF5816ECBF6FD724D
:101B9000734538BF02F580624CF6CD441A44CCF64A
:101BA000CC44A2FB042903F0FC02A2F10802A2FB30
:101BB00004280CF580646FF00305D0E902A60769DC
:101BC0003CBF0024C4F2020405EA9905C0E91045AF
:101BD000022480F825401C6847F6F07224EA0202CD
:101BE000324346693A4387693243C6693A43076AD2
:101BF00032433A4342EA0A021A600CF50262734524
:101C000038BF0CF50062AB180CF50862C264C8F36B
:101C1000041201FA02F540F68401BAF5804FC4F2CD
:101C200002018364056505D1002242601A600D60DF
:101C300018E000BF4268D4B2013A032A4FF0000214
:101C40001C600D600ED8631E01EB830747F87C2FE4
:101C500003F01F0201239340C1F8C030BC313A4663
:101C600002E000BF00210023C0E91521002101226C
:101C7000C365C16380F8252080F82410BDE8F047D3
:101C80000846704790F824C0BCF1010F47D04FF0D0
:101C9000010C80F824C090F825C0BCF1010F3BD1A5
:101CA0002DE9F0414FF0020C80F825C04FF0000CF8
:101CB000C0F83CC0D0F800C000F14C0E9EE83040A7
:101CC000DCF80060BEF1000F26F00106CCF80060E1
:101CD00065601CBFD0E916456560D0E91056012744
:101CE00006F01F06846807FA06F6D0F830806E60AA
:101CF000CCF804300B46102C04BF13460A46CCF82F
:101D00000830CCF80C20DCF80010B8F1000F09D036
:101D100041F00E010EE000BF002180F824100220E7
:101D2000704700BF21F00401CCF80010DCF800106F
:101D300041F00A01CCF80010806C0168C90303D59A
:101D4000016841F480710160BEF1000F05D0DEF83A
:101D5000000040F48070CEF80000DCF8000040F095
:101D60000100CCF800000020BDE8F081B0B50446C9
:101D700000F0F8F8054640F23000C2F2000040687A
:101D8000611C18BF044400BF00F0ECF8401BA042E7
:101D9000FAD3B0BD2DE9F04F83B00E68002E00F0ED
:101DA000CF8000F1200241F2004C009200F1384750
:101DB000C4F6000C06224FEAB725604508BF05228D
:101DC000052D38BF4FEAB722002500274FF0000845
:101DD00001920AE00E6808F1010836FA08F207F1EC
:101DE000020705F1040500F0AB80012202FA08FEAB
:101DF00016EA0E09EED0D1F804C003220CF0030B52
:101E0000ABF1010602FA07F4012E6FEA040A11D8B9
:101E10008468CE6804EA0A04BE403443846044689F
:101E200024EA0E06CCF3001404FA08F426434660B4
:101E300006E000BFBBF1030F02D14FF0030B21E01E
:101E4000C6688C6806EA0A06BC402643BBF1020F4E
:101E5000C66017D16FF00302009B02EA580605F036
:101E60001C020F2453F806C004FA02FE0C692CEA87
:101E70000E0C04FA02F242EA0C029A51D1F804C0A4
:101E80000CF0030B02680BFA07F302EA0A021A438A
:101E90001CF4403F02609DD041F26003C4F2020393
:101EA0001A6840F2004E42F001021A601A68C4F249
:101EB000010E02F001020292029A28F003024FF68C
:101EC000084C7244CFF6FF7C52F80C3005F00C063B
:101ED0000F24B440A343019C04FA06F6334342F8AE
:101EE0000C30DEF808204B6842EA090640F20C4C40
:101EF000DC0258BF22EA0906CEF80860C4F2010CE1
:101F0000DCF800209C0242EA090658BF22EA0906D2
:101F1000CCF80060DEF804209C0342EA090658BFB2
:101F200022EA0906CEF80460DEF80020DB0342EA6C
:101F3000090658BF22EA0906CEF800604AE700BF4A
:101F400003B0BDE8F08F0000426902EA010391434B
:101F500041EA0341816170471823002A08BF282302
:101F6000C150704740F2E430C2F200000068704790
:101F700040F2300040F2E431C2F20000C2F200014F
:101F800040680A68104408607047000080B503206C
:101F900000F08CF80F2000F009F800281CBF012089
:101FA00080BD00F02BF8002080BD0000B0B540F2ED
:101FB0003005C2F200056968F1B1044640F2400004
:101FC000C2F200004FF47A720068B2FBF1F1B0FB8C
:101FD000F1F000F0E3F801460F2C4FF001000AD8B1
:101FE000002918BFB0BD4FF0FF302146002200F09D
:101FF00031F800202C60B0BD0120B0BD82B041F2AC
:102000005800C4F20200816841F0010181608168DA
:1020100001F0010101910199016841F080510160D5
:10202000006800F080500090009802B000F04EB8B8
:10203000002848BF704700F01F01012202FA01F199
:102040001C2202EAD0004EF20012CEF200028150B1
:102050007047000010B54EF60C5CCEF2000CDCF8B8
:102060000030C3F3022E8EF00704042C28BF042492
:10207000BEF103034FF0FF3E0EFA04F438BF002315
:10208000A14399400EFA03F39A43114300F00F0263
:1020900000F160430901043A03F5644362440028F7
:1020A00048BF02F10C03197010BD00004EF60C5130
:1020B000CEF200010A684FF6FF031A4060F30A22CD
:1020C00042F0806040F0FD700860704747F2080001
:1020D000C4F20000016841F48041016070470000D3
:1020E00040F2400041F20801C2F20000C4F20201D5
:1020F0000068096845F6D422C1F30221C0F6000247
:10210000515C01F01F01C8407047000040F24000E0
:1021100041F20801C2F20000C4F20201006809683D
:1021200045F6D422C1F3C221C0F60002515C01F091
:102130001F01C8407047000041F20C01C4F20201C7
:1021400051F8040C00F00C00042842F20040C0F2E8
:10215000F40008BF704751F8042C02F00C02082A62
:102160001AD051F8042C02F00C020C2A1CBF0020DB
:1021700070470A680A680B68C2F303120132B0FBA9
:10218000F2F00968C3F306225043C1F34161022211
:1021900002EB4101B0FBF1F070470000411E00204E
:1021A000B0EB116F1CBF012070474EF21002CEF24F
:1021B000000251604EF62351CEF20001F0230B7065
:1021C0000721906011607047704700007047000061
:1021D0007047000090F83C20012A04BF022070479D
:1021E000B0B5D1E90232D1E900CE22F47C5223F419
:1021F000705343EA020448F2FF73CEF6F0730EEA1E
:102200000302224303F5006404EA0C0442EA040CCE
:102210000C6903F5C05222404C6942EA0C02224389
:1022200003F5605422400C6B03F5F04323401A433E
:102230008B6940F2000CCC69CEF6FF7C0CEA034CB3
:102240001443026843F20043C4F201039A4244EA91
:102250000C0305D042F60044C4F20104A24217D197
:102260004FF6FF74CDF60F4403EA040ED1E9084C93
:10227000D1E90A310025CDF6F04505EA035343EADA
:102280000E0324F008552B432CF000552B430B4331
:102290000021536480F83C100020B0BD704700005E
:1022A000704700007047000090F83C20012A4FF072
:1022B00002024AD070B580F83D20026843F2004C1B
:1022C00054689368C4F2010C42F6004E6245C4F2B1
:1022D000010E01D0724503D14D6824F470042C43E3
:1022E0004FF68F75CFF6FF550E682C4042F6FF353E
:1022F000C4F201053443AA4254600FDCB2F1804FAE
:1023000016D040F20046C4F20006B24210D040F6A9
:102310000006C4F20006B2420AD00EE0724507D0B1
:1023200044F20006C4F20106B24201D0624504D173
:10233000896823F08003194391600121002280F80D
:102340003D1080F83C20BDE870401046704700000A
:1023500070470000002804BF0120704710B50446F4
:1023600090F83D0028B9002084F83C00204600F099
:1023700023F8022084F83D002068211D01F0B2FFFF
:10238000012084F8480084F83E0084F83F0084F877
:10239000400084F8410084F8420084F8430084F847
:1023A000440084F8450084F8460084F8470084F827
:1023B0003D00002010BD000080B582B0006840F2F2
:1023C0000041C4F20001884214D042F60041C4F238
:1023D000010188420CD141F25800C4F20200816828
:1023E00041F400618160806800F400600190019810
:1023F00002B080BD41F25800C4F202000168002220
:1024000041F0020101600068022100F0020000902A
:1024100000981D20FFF71EFE1D2002B0BDE8804081
:10242000FFF706BE90F83D1001291DD1022180F86A
:102430003D10016842F6FF32C868C4F201029142C1
:1024400040F00100C86011DCB1F1804F20D040F2B3
:102450000040C4F2000081421AD040F60000C4F2ED
:102460000000814214D020E00120704742F6004075
:10247000C4F2010081420BD044F20000C4F201001A
:10248000814205D043F20040C4F2010081420CD1E8
:1024900088680722C0F201020240062A4FF00000BD
:1024A000E3D0B2F5803F08BF7047086840F00100F4
:1024B000086000207047000090F83C20012A4FF08F
:1024C000020200F0AC8080B580F83D20D0F800C05A
:1024D0008822DCF80830CFF6CE721A40CCF80820FB
:1024E0000B686F2B10DD1F22C0F21002934237DC05
:1024F000B3F5005F6EDA702B00F0B680B3F5805F45
:1025000000F08480D8E000BF2F2B35DD4F2B39DC65
:10251000302B6FD0402B40F0CF80D1F804E0C96859
:10252000DCF82030DCF8202022F00102CCF820205A
:10253000DCF8182022F0F00242EA011123F00A022E
:1025400042EA0E02CCF81810CCF82020DCF8081073
:102550004FF68872CFF6CF721140473154E000BF7A
:102560003F21C0F210018B423ADC2021C0F2100161
:102570008B423FD0302139E0E3B3102B3AD0202BEF
:1025800038D099E0502B4DD0602B40F09580D1F899
:1025900004E0C968DCF82030DCF8202022F01002CA
:1025A000CCF82020DCF8182022F4704242EA0131F5
:1025B00023F0A00242EA0E12CCF81810CCF820202A
:1025C000DCF808104FF68872CFF6CF7211406731F1
:1025D0001AE000BF5CD0B3F1101F0BD06CE000BF5D
:1025E0004021C0F210018B4204D07021C0F21001D2
:1025F0008B4261D1DCF808104FF68872CFF6CF72AB
:102600001140194341F00701CCF8081000220121C4
:1026100080F83D10002180F83C10BDE88040104655
:10262000704700BFD1F804E0C968DCF82030DCF85E
:10263000202022F00102CCF82020DCF8182022F023
:10264000F00242EA011123F00A0242EA0E02CCF83B
:102650001810CCF82020DCF808104FF68872CFF65E
:10266000CF7211405731CFE7D1E901E3C968DCF8F7
:10267000082043EA0E0322F47F4243EA012111437A
:10268000CCF80810DCF8081041F07701BCE700BF77
:10269000D1E901E3C968DCF8082043EA0E0322F41B
:1026A0007F4243EA01211143CCF80810DCF80810FE
:1026B00041F48041A8E700BF0122A8E7704700006D
:1026C000F0B581B004460068C5680669B10717D542
:1026D00015F0020114D06FF0020101610121217790
:1026E0008069800704D02046FFF7E8FF06E000BFBE
:1026F000204600F0CBF8204600F0E2FA00202077D8
:10270000700719D515F0040016D020686FF0040189
:10271000016102212177806910F4407F04D02046B6
:10272000FFF7CCFF06E000BF204600F0AFF82046E0
:1027300000F0C6FA00202077300717D515F0080002
:1027400014D020686FF00801016104212177C0696D
:10275000800703D02046FFF7B1FF05E0204600F0D8
:1027600095F8204600F0ACFA00202077F00619D545
:1027700015F0100016D020686FF0100101610821DB
:102780002177C06910F4407F04D02046FFF796FF00
:1027900006E000BF204600F079F8204600F090FAED
:1027A00000202077F00718BF15F0010006D0206840
:1027B0006FF001010161204600F03AFB16F4025F60
:1027C00005F0800718BF002F02D1F00509D410E0F2
:1027D00020686FF4025101612046FFF7F7FCF00515
:1027E00007D537B120686FF4807101612046FFF78B
:1027F000EBFC700609D515F0400006D020686FF09C
:1028000040010161204600F0A3FBB00609D515F098
:10281000200006D020686FF0200101612046FFF7FC
:10282000D7FCF00209D515F4801006D020686FF4AB
:10283000801101612046FFF733FDB00209D515F480
:10284000001006D020686FF4001101612046FFF7E8
:1028500025FD700209D515F4800006D020686FF4BC
:10286000800101612046FFF71DFD30020CD515F4F3
:10287000000009D021686FF4000220460A6101B00F
:10288000BDE8F040FFF764BD01B0F0BD7047000047
:1028900090F83C30012B04BF022070474FEAB2028F
:1028A000052A00F2D3812DE9F041DFE812F007009C
:1028B00035018D00E1005100870100BF03681D6AEA
:1028C0001A6AA3F1804622F001021A621A465C6875
:1028D00052F818CF8F68A6F59636D1F800E025F0AB
:1028E00002054FEAB626072E45EA07050AD8012752
:1028F000B74017F0E50F1FBFCF6825F00C0527F094
:1029000004073D43072E0BD8012707FA06F616F0F9
:10291000E50F1FBFD1E9056724F4407434433C43FD
:102920004FF68C76CFF6FE760CEA060747EA0E07DE
:102930005C609F614F6809695F631D629F6947F032
:1029400008079F619F6927F004079F6173E100BF3B
:102950000368D3F820C01A6AA3F1804722F48032BA
:102960001A621A46A7F596375D6852F8508FD1F86B
:1029700000E08E684FEAB727072F09D80124BC4032
:1029800014F0E50F1EBF4C6925F4803545EA042597
:102990002CF4003747EA06474FF68C76CFF6FE76E2
:1029A000033606EA080646EA0E065D601E654E68B6
:1029B00009699E641F621F6D47F008071F651F6D40
:1029C00027F004071F6536E1036843F200461D6ADD
:1029D0001A6AC4F2010622F480721A621A46D3F807
:1029E00004C052F81CEFB3428E68D1F8008025F481
:1029F000007545EA062505D042F60046C4F20106F8
:102A0000B34207D1CE6840F2FF47360225F4406555
:102A1000BE433543A3F18046A6F596364FEAB62667
:102A2000072E0CD8012707FA06F616F0E50F1FBF90
:102A3000D1E905672CF44054374344EA071C4FF6AC
:102A40008C74CFF6FE740EEA040747EA0807C3F851
:102A500004C0DF614F680969DF631D62DF6947F009
:102A60000807DF61DF6927F00407DF61E3E000BFEB
:102A7000036843F200461D6A1A6AC4F2010622F492
:102A800080521A621A46D3F804C052F81C8FB3421F
:102A90008E68D1F800E025F4005545EA063505D0EA
:102AA00042F60046C4F20106B34207D1CE6844F6AE
:102AB000FF77360325F44045BE433543A3F18046F6
:102AC000A6F596364FEAB626072E0CD8012707FA48
:102AD00006F616F0E50F1FBFD1E905672CF4404458
:102AE000374344EA871C48F6FF44CFF6FF6404EA04
:102AF000080444EA0E27C3F804C0DF614F6809697F
:102B00001F641D62DF6947F40067DF61DF6927F436
:102B10008067DF618EE000BF036843F200461D6AF4
:102B20001A6AC4F2010622F010021A621A465C68A0
:102B300052F818CFB3428E68D1F800E025F0200596
:102B400045EA061505D042F60046C4F20106B34236
:102B500007D1CE686FF0400725F0C00507EA0616DA
:102B60003543A3F18046A6F596364FEAB626072EE2
:102B70000CD8012707FA06F616F0E50F1FBFD1E9BA
:102B8000056724F440643E4344EA860448F6FF4661
:102B9000CFF6FF660CEA060747EA0E275C609F61E6
:102BA0004F6809699F631D629F6947F400679F61D1
:102BB0009F6927F480679F613CE000BF0368D3F8FA
:102BC00020C01A6AA3F1804722F480121A621A46C2
:102BD000A7F596375D6852F8508FD1F800E08E68FF
:102BE0004FEAB727072F09D80124BC4014F0E50F9E
:102BF0001EBF4C6925F4802545EA84252CF4001776
:102C000047EA065748F6FF46CFF6FF6606F54076D8
:102C100006EA080646EA0E265D601E654E680969EA
:102C2000DE641F621F6D47F400671F651F6D27F488
:102C300080671F6509021368194311600021BDE810
:102C4000F041002280F83C20084670470121002214
:102C500080F83C2008467047002804BF01207047D8
:102C600010B5044690F83D0028B9002084F83C00D7
:102C7000204600F023F8022084F83D002068211D42
:102C800001F030FB012084F8480084F83E0084F80D
:102C90003F0084F8400084F8410084F8420084F842
:102CA000430084F8440084F8450084F8460084F822
:102CB000470084F83D00002010BD00007047000070
:102CC0007047000080B5D9B10B1F4FEAB30E432205
:102CD0004FF03F0CBEF1040F38BF0CEBB302825C27
:102CE000012A1CBF012080BDBEF1030F1ED8DFE802
:102CF0000EF00319111500BF022280F83F2018E0E2
:102D000090F83E20012A1CBF012080BD022280F8DD
:102D10003E200EE0022280F841200AE0022280F8E4
:102D2000422006E0022280F8402002E0022280F8E1
:102D30004320026801F01F010120136A00FA01F12B
:102D40008B431362136A0B43A2F18041A1F59631C4
:102D50004FEAB1210629136244D8884010F0650F6C
:102D600040D0506C42F6FF31C4F2010140F4004003
:102D70008A42506410DCB2F1804F1FD040F2004014
:102D8000C4F20000824219D040F60000C4F20000F4
:102D9000824213D01FE000BF42F60040C4F201009F
:102DA00082420BD044F20000C4F20100824205D0FE
:102DB00043F20040C4F2010082420CD19068072126
:102DC000C0F20101014006294FF0000008D0B1F522
:102DD000803F08BF80BD106840F0010010600020F7
:102DE00080BD00BF42F6FF30C4F201008242C2DD66
:102DF00043F6FF70C4F20100824207DC42F6004055
:102E0000C4F201008242D3D1D8E700BF44F20000EF
:102E1000C4F201008242D1D044F60000C4F20100A5
:102E2000824202BF506C40F400405064D3E700007F
:102E3000006840F20041C4F20001884218BF7047A8
:102E4000F0B581B02DED028B40F24810C2F20000C7
:102E500000889FED3B1A00EE100AB8EE400A30EEF3
:102E6000000A20EE010A10EE100AFDF7D2FB9FEDDA
:102E7000320B53EC102BFDF7B5FAFDF7DDFB40F2FA
:102E80002804C2F20004217840F24C1640F24805B2
:102E900000EE100AC2F20006C2F20005306039B13D
:102EA0000020B0EE401A207085ED000A02E000BF5D
:102EB00095ED001A9FED238A30EE410AF0EE480AA4
:102EC00002F0C4F840F2D437C2F2000797ED001ABE
:102ED000DFED1D0A85ED010A30EE010A02F0B6F8B9
:102EE00096ED001A95ED002A87ED000A31EE420AB0
:102EF000F0EE480A02F0AAF830689FED141A40F28A
:102F0000D836C2F2000620EE012AD6ED000A94ED72
:102F1000011A85ED010AB0EE420A286085ED022A09
:102F200000F01EFD86ED000ABDEC028B01B0BDE88D
:102F3000F040704700BF00BF112D4454FB210940F1
:102F400000008037DB0FC940E4CB964100007A4493
:102F50007047000090F88410012904BF02207047D8
:102F60002421C0F8881001680A680B6822F000521A
:102F700023F001030B60002343660A602021C0F8A0
:102F8000881080F8843000207047000070470000EF
:102F90007047000090F88420012A04BF0220704787
:102FA000B0B52422C0F888200268D0F864E0D2F8D6
:102FB00000C01368BEF1000F23F001031360936893
:102FC00023F0606341EA0301916019D0936891682E
:102FD00045F6043E490FC0F6000E45F60C351EF8C6
:102FE0000140C0F60005695CC3F34263E400B4FB32
:102FF000F1F11EF80340EB5CE500B5FBF3F301E0F3
:1030000001210123A0F86A102021A0F86830C2F83D
:1030100000C0C0F88810002180F884100020B0BDE6
:1030200090F88420012A04BF02207047B0B5242202
:10303000C0F888200268D0F864E0D2F800C01368B5
:10304000BEF1000F23F001031360936823F0604387
:1030500041EA0301916019D09368916845F6043EF6
:10306000490FC0F6000E45F60C351EF80140C0F6BB
:103070000005695CC3F34263E400B4FBF1F11EF8A0
:103080000340EB5CE500B5FBF3F301E00121012314
:10309000A0F86A102021A0F86830C2F800C0C0F87B
:1030A0008810002180F884100020B0BD7047000017
:1030B000704700007047000070B5026840F62F04AA
:1030C000D369116896681C40202C0BD101F02004B4
:1030D00006F080552D1916D0416F61B3BDE87040E0
:1030E000084700BF40F60F052B420CD00125C1F266
:1030F000000506EA050C40F22015C0F200450D401F
:1031000015EB0C0524D1C46EDD0615D5012C13D1A9
:1031100011F0100510D0102111629168490661D498
:10312000B0F85C10B0F85E20B0F85E30002B18BF2D
:10313000914240F0518270BDDD0215D516F4800534
:1031400012D04FF480111162BDE87040FFF7B0BF9C
:10315000DD0718BF11F4807540F020819D0706F04F
:10316000010E00F1278130E11A0606D501F0800238
:1031700006F40006921940F0AF825A0640F102812F
:1031800011F0400200F0FE80016851E8001F026863
:1031900021F0400142E80013DBB1016851E8001F53
:1031A000026821F0400142E8001393B1016851E840
:1031B000001F026821F0400142E800134BB1016892
:1031C00051E8001F026821F0400142E80013002B83
:1031D000DAD12021C0F8881000218167BDE8704055
:1031E00000F0B8BBD0F880100A685368B0F85C40B3
:1031F00099B2002900F0B880A14280F0B580A0F813
:103200005E301168890600F1A38000BF016851E8B3
:10321000001F026821F4807142E80013E3B10168E5
:1032200051E8001F026821F4807142E800139BB14D
:10323000016851E8001F026821F4807142E8001320
:1032400053B1016851E8001F026821F4807142E81F
:103250000013002BDAD100BF016851E8021F026899
:1032600021F0010142E80213BBB3016851E8021FDB
:10327000026821F0010142E8021373B3016851E8CA
:10328000021F026821F0010142E802132BB301681A
:1032900051E8021F026821F0010142E80213002BED
:1032A000DAD11AE0016851E8021F026821F04001FA
:1032B00042E80213DBB1016851E8021F026821F005
:1032C000400142E8021393B1016851E8021F02680D
:1032D00021F0400142E802134BB1016851E8021F9E
:1032E000026821F0400142E80213002BDAD12021CC
:1032F000C0F88C100021C166016851E8001F026807
:1033000021F0100142E80013DBB1016851E8001F11
:10331000026821F0100142E8001393B1016851E8FE
:10332000001F026821F0100142E800134BB1016850
:1033300051E8001F026821F0100142E80013002B41
:10334000DAD1D0F8801004460846FEF741FB20464B
:1033500002210167B0F85C10B0F85E20891A89B2CA
:10336000BDE87040FFF712BE8C427FF4E4AE1268F5
:1033700092067FF5E0AE02220267BDE87040FFF7DB
:1033800005BE00BF1A0240F1B38111F0804200F087
:10339000AF81BDE87040FFF789BE00BF012515620F
:1033A000D0F8905045F00105C0F890509D0706F008
:1033B000010E0AD5BEF1000F07D002241462D0F826
:1033C000904044F00404C0F890405C070AD5BEF178
:1033D000000F07D004251562D0F8905045F0020583
:1033E000C0F890501D070CD501F0200555EA0C05DA
:1033F00007D008251562D0F8905045F00805C0F8B0
:1034000090501D050BD511F0806508D04FF4006574
:103410001562D0F8905045F02005C0F89050D0F8D3
:103420009050002D3FF487AE9B060BD501F0200194
:1034300006F08053C91805D0416F19B1044688477A
:1034400022682046D0F89010926801F0280102F01E
:103450004002891806D10446FFF72CFE0020C4F86C
:10346000900070BD016851E8001F026821F490715E
:1034700042E80013DBB1016851E8001F026821F443
:10348000907142E8001393B1016851E8001F02688F
:1034900021F4907142E800134BB1016851E8001F1C
:1034A000026821F4907142E80013002BDAD14FF644
:1034B000FE71CEF6FF7100BF026852E8022F03686A
:1034C0000A4043E80226C6B1026852E8022F0368A8
:1034D0000A4043E8022686B1026852E8022F0368D8
:1034E0000A4043E8022646B1026852E8022F036808
:1034F0000A4043E80226002EDED1C16E012924D104
:10350000016851E8001F026821F0100142E8001331
:10351000DBB1016851E8001F026821F0100142E8A8
:10352000001393B1016851E8001F026821F01001F7
:1035300042E800134BB1016851E8001F026821F016
:10354000100142E80013002BDAD12021C0F88C10C2
:103550000021C166026841679168490640F1C48054
:10356000016851E8021F026821F0400142E802139D
:10357000DBB1016851E8021F026821F0400142E816
:10358000021393B1016851E8021F026821F0400163
:1035900042E802134BB1016851E8021F026821F0B2
:1035A000400142E80213002BDAD1D0F88010002944
:1035B00000F09A8044F26D62C0F6000204460846AC
:1035C0008A63FEF73DFA00283FF4B5ADD4F88000D9
:1035D000816BBDE870400847891A00BF026852E855
:1035E000002F036822F4907243E80026DEB10268DF
:1035F00052E8002F036822F4907243E8002696B147
:10360000026852E8002F036822F4907243E8002613
:103610004EB1026852E8002F036822F4907243E82A
:103620000026002EDAD14FF6FE72CEF6FF7200BFF2
:10363000036853E8023F0668134046E80235C5B107
:10364000036853E8023F0668134046E8023585B137
:10365000036853E8023F0668134046E8023545B167
:10366000036853E8023F0668134046E80235002D20
:10367000DED12022C0F88C200022C266426700BF43
:10368000026852E8002F036822F0100243E8002687
:10369000DEB1026852E8002F036822F0100243E80E
:1036A000002696B1026852E8002F036822F010024B
:1036B00043E800264EB1026852E8002F036822F06A
:1036C000100243E80026002EDAD1022289B20267F6
:1036D000BDE87040FFF75ABC816F00293FF42BAD65
:1036E000BDE87040084700BFBDE87040FFF7E2BC8E
:1036F000DA017FF520ADB1F1FF3FC8BF70BDBDE875
:103700007040FFF745BC000010B5D0B10446D0F8BA
:10371000880028B9002084F88400204600F026F8AC
:103720002420C4F888002068A16A026822F00102FF
:10373000026011B1204600F06FFE204601F0E6F86D
:1037400010B1012010BD00BF2168486820F49040EE
:103750004860886820F02A008860086840F001020C
:1037600020460A60BDE8104000F0CABE2DE9F041D5
:1037700086B00446006843F60001C4F20101002649
:103780008842CDE90466CDE90266019602D006B012
:10379000BDE8F08141F24C00C4F20200C16B40F27E
:1037A000080821F00301C1634169C4F2020841F431
:1037B00080414161416901F48041009100990168B3
:1037C00041F002010160006801A900F002000090D0
:1037D0000098C02001900220CDE902060720059044
:1037E00040F20040C4F600000496FEF7D3FA40F21F
:1037F000BC15C2F2000518208027C5E900802846C4
:10380000C5E90266C5E90476C5E906662E62FEF7DB
:10381000ADF9002818BFFDF725F9C4F88050AC6257
:1038200040F21C2508F11400C2F2000519211022F3
:10383000002385E88F004FF4805028622846C5E9B0
:103840000533EB61FEF792F9002818BFFDF70AF97E
:10385000252002210022E567AC62FEF7FBFB252054
:10386000FEF7E6FB06B0BDE8F0810000D0F8883036
:10387000202B09D1944600294FF0010218BFBCF15A
:10388000000F05D11046704702221046704700BF56
:10389000B0B5002221230165A0F854C0A0F856C09D
:1038A000C0F89020C0F88830C36F2BB344F279651C
:1038B000C0F6000544F6550444F6051E5D63056830
:1038C000C0F60004C0F6000EC3E90B4E9A6305F182
:1038D0002802044618466346FEF7D4F901462046FE
:1038E00051B11021C0F890102021C0F88810012299
:1038F000BDE8B04010467047016840220A6200BF30
:10390000016851E8021F026841F0800142E8021399
:10391000DBB1016851E8021F026841F0800142E812
:10392000021393B1016851E8021F026841F080015F
:1039300042E802134BB1016851E8021F026841F0EE
:10394000800142E80213002BDAD10022BDE8B0402A
:10395000104670477047000070470000FEE7000007
:10396000B7EE002A32EE412A20EE822A21EE000A2A
:1039700030EE020A704700002DE9F04F0C6894FA0F
:10398000A4F2B2FA82F234FA02F361D04FF00108E5
:103990004FF0030B0BE000BFD1E900470568B740CB
:1039A0002B403B430360013234FA02F350D008FA53
:1039B00002F314EA030CF6D0D1F80490A9F1010344
:1039C000022B9CFAACF319D2B3FA83F77E00D0F83D
:1039D00008A00BFA06F3D1E902BE2AEA030A0BFAA1
:1039E00006F545EA0A05856045684FF0030BA543D7
:1039F0000EFB04F4DB432543456005E0B3FA83F78F
:103A00007E000BFA06F3DB430D69C468B5401C4029
:103A10002543B9F1020FC560BED14FEA1C2494FAC8
:103A2000A4F4D1F814E0BCF5807F28BFB4FA84F781
:103A30004FF0240438BF202450F804C0BF000F25E5
:103A4000BD402CEA05050EFA07F72F430751A3E7FF
:103A50000020BDE8F08F00000246006840063BD41D
:103A60002DE9F04710684FF6BF73D1E9009E20EAB8
:103A7000030CD1E9024A4CEA0905D1E9046701F1D6
:103A8000180845EA0E0598E8090145EA0A052E439B
:103A900030431843384340EA08001060506840F64D
:103AA0000473984340EA174000232043B3EBD42F1C
:103AB000506003D1506840F480505060B8F5005F0A
:103AC000BDE8F04704BF888C10610020D16921F463
:103AD0000061D161704700BF0120D16921F400610C
:103AE000D161704740F24001C2F2000108607047A6
:103AF000B0B590B001A818302421FCF7C1FB40F20A
:103B0000501040F20011C2F20000C5F20001002482
:103B1000012304254FF4403280E81600C0E9034435
:103B2000C0E905358483036280F8244080F838407A
:103B3000C46380F84040FDF7F3FD002818BFFCF790
:103B400091FF0820C0F690400190092002900320C8
:103B500003907F20CDE90405022009908020CDE963
:103B60000B0040F25010C2F2000001A90694ADF81B
:103B700028408DF82A408DF83440FCF7E5FF0028F6
:103B800018BFFCF76FFF0020C4F25270019040F2A2
:103B90000F10029040F25010C2F2000001A9FCF791
:103BA000D3FF002818BFFCF75DFF10B0B0BD0000C8
:103BB00010B582B041F24800C4F202000168002250
:103BC00041F0040101600168002401F0040100914A
:103BD0000099016841F0010101600068002100F0D6
:103BE0000100019001980B20FEF734FA0B20FEF73C
:103BF0001FFA0C2000210022FEF72CFA0C20FEF701
:103C000017FA4EF60C50CEF2000001684EF20D414C
:103C1000CEF200014EF200120C70CEF200024FF410
:103C20000053136000684C704FF48040106002B085
:103C300010BD00002DE9F04387B0002641F24C0092
:103C40000696CDE90466CDE90266C4F20200016879
:103C5000002241F0200101600168062501F02001E9
:103C600001910199016841F004010160016801F0CE
:103C7000040101910199016841F0010101600168AD
:103C800001F0010101910199016841F00201016017
:103C90000068062100F00200019001984FF090406A
:103CA000FEF75AF940F20049C4F60009484640F2CE
:103CB00001410022FEF750F948464FF400710122FD
:103CC0004FF400780127FEF747F9CDE9025702AD1E
:103CD00003244FF09040294604960594FEF75AF8C5
:103CE00048462946CDE90277CDE90464FEF752F84B
:103CF0004FF48060CDE9020702200590484629462E
:103D00000496FEF747F848462946CDE90287CDE9F3
:103D10000466FEF73FF807B0BDE8F0832DE9F047F1
:103D200092B00DF11C0840462821FCF7A9FA0027A3
:103D300041F26000CDE90577CDE90377CDE9017760
:103D4000C4F20200016841F24C0A41F48051016062
:103D50000068C4F2020A00F4805011901198DAF859
:103D6000000040F2004540F00200CAF80000DAF816
:103D70000000C4F6000500F0020011901198082020
:103D800001AE01904FF00209052428463146CDE9E5
:103D90000297CDE904770694FFF7EEFD1020CDE9F8
:103DA000010928463146CDE90377CDE90574FFF7CF
:103DB000E3FD2020CDE9010928463146CDE903770E
:103DC000CDE90574FFF7D8FD3020C4F20200D0F829
:103DD000D8170A2262F30701C0F8D81701684BF61A
:103DE000EF72CFF6FF721140016001680B2621F4DB
:103DF00040510160016843F2040421F02001016098
:103E00000168C4F2010421F040010160016841F041
:103E100080010160016821F440710160016821F4B2
:103E2000406101604FF2C071CFF6FF715AF8013066
:103E300066F307034AF801304169114010314161CE
:103E4000416921F440514161416921F02001416102
:103E5000416921F040014161416941F080014161C6
:103E6000416921F440714161416921F4406141613E
:103E70004FF4827008904FF4E060CDE90909012009
:103E80000B904FF400700C901820CDE90D0707201F
:103E90001090201F414607970F97FFF7DDFD206820
:103EA00020F010002060206820F00800206012B090
:103EB000BDE8F087F0B5A1B06C4642F6004600259B
:103EC00020463421C4F201061A95CDE91855CDE9F2
:103ED0001555CDE91355CDE91155CDE90F55CDE96E
:103EE0000D55FCF7CDF940F27C20C2F20000012113
:103EF0006022802700F1080C41F29A03C0E90061BA
:103F00008CE82C00C0E90517FEF724FA002818BF3A
:103F1000FCF7A8FD4FF48050179040F27C20C2F2CD
:103F2000000017A9FEF7C8FA002818BFFCF79AFD91
:103F300040F27C20C2F20000FEF78EFE002818BF7F
:103F4000FCF790FD2020149040F27C200025C2F266
:103F5000000014A9CDE91555FEF7A6F9002818BFF1
:103F6000FCF780FD7020CDE90D0540F27C20C2F207
:103F700000000DA90022CDE90F55CDE9115513958B
:103F8000FEF786FC002818BFFCF76CFD40F27C2091
:103F9000C2F200000DA90422FEF77AFC002818BF27
:103FA000FCF760FD40F27C20C2F200000DA908225F
:103FB000FEF76EFC002818BFFCF754FD4FF480702C
:103FC0000027029004F10C002821CDE90077FCF7CE
:103FD00057F940F27C25C2F2000528462146FEF73B
:103FE000F9F8002818BFFCF73DFD28682097B0427B
:103FF000CDE91E771D971C9702D021B0F0BD00BF00
:1040000041F24C00C4F20200016841F00401016079
:104010000068002100F004001B901B9807201C90F2
:1040200002201D90209040F60000CDE91E11C4F63C
:1040300000001CA9FDF7AEFE21B0F0BD80B588B030
:1040400040F2C82040F200420021C2F20000C4F257
:104050000002A9234FF47A7C0791CDE90511029162
:10406000C0E90023C0E9021C01618161FEF772F919
:10407000002818BFFCF7F6FC4FF48050049040F283
:10408000C820C2F2000004A9FEF716FA002818BFE3
:10409000FCF7E8FC00200190039040F2C820C2F237
:1040A000000001A9FEF700F9002818BFFCF7DAFCB0
:1040B00008B080BD80B540F2143043F60001C2F272
:1040C0000000C4F2010100234FF00C0C4FF46122F8
:1040D00080E80E00C0E90333C0E905C3C0E9073337
:1040E000C0E90933FFF710FB002818BFFCF7BAFC42
:1040F00040F21430C2F200000021FEF791FF0028C8
:1041000018BFFCF7AFFC40F21430C2F200000021EF
:10411000FEF740FF002818BFFCF7A4FC40F2143063
:10412000C2F20000FEF716FF002808BF80BDBDE800
:104130008040FCF797BC0000FEE70000FEE70000AF
:104140007047000070470000FDF712BF80B582B0D5
:1041500042F20000C4F202000168042262F303018B
:10416000016000BF016801F00F0104290ED0016851
:1041700001F00F01042909D0016801F00F010429A1
:1041800004D0016801F00F010429EBD147F280014E
:10419000C4F200010A6841F2080022F48072C4F2FD
:1041A00002000A6050F8081C41F4803140F8081CF5
:1041B00050F8081C89030CD450F8081C89035CBF14
:1041C00050F8081C5FEA813103D450F8081C8903B9
:1041D000EED5416848F20C02CFF6FF12114045F2CD
:1041E000335211434160416841F08071416050F8A1
:1041F000081C41F0807140F8081C50F8081C890127
:104200000CD450F8081C89015CBF50F8081C5FEA08
:10421000811103D450F8081C8901EED501680822E9
:1042200041F003010160016862F30711016000BF02
:10423000016801F00C010C290ED0016801F00C019D
:104240000C2909D0016801F00C010C2904D0016887
:1042500001F00C010C29EBD1552101910199A1B17B
:10426000019901390191019979B1019901390191BE
:10427000019951B1019901390191019929B101992E
:104280000139019101990029EAD1016821F0F00179
:104290000160016821F4E0610160016821F460516E
:1042A00001604FF68060C0F62120FFF71BFC0F2055
:1042B000FDF77CFE20B1EFF3108072B6FEE700BF81
:1042C00002B080BD4EF68850CEF20000016841F485
:1042D000700101607047000040F2C820C2F2000087
:1042E000FEF7EEB940F2FF7C0268C4F2000C6045B4
:1042F00024DD40F60003C4F20003984227D043F2C5
:104300000043C4F20103984221D042F60043C4F2B4
:10431000010398421BD043F2FF33C4F201039842D9
:104320001FDC604530DCB0F1804F47D040F20043E5
:10433000C4F20003984241D044E000BFB0F1804F86
:1043400005D040F20043C4F200039842E3D14B6829
:1043500022F070021A4343F2FF33C4F20103984281
:10436000DFDD44F2FF33C4F2010398421ADC43F26A
:104370000043C4F20103984220D044F20003C4F287
:10438000010398421AD01DE040F60003C4F2000376
:10439000984213D042F60043C4F2010398420DD074
:1043A00010E000BF44F60003C4F20103984205D0B8
:1043B00044F20043C4F20103984203D1CB6822F4D3
:1043C00040721A4380B54B6922F0800E8A6843EA36
:1043D0000E03D1F800C00360C262A0F18042A2F5D2
:1043E00096324FEAB222072AC0F828C0BDE88040C2
:1043F00007D8012303FA02F212F0E50F1CBF096986
:104400000163012141610169C90708BF7047016962
:1044100021F0010101617047816A0A070CD4CA07C3
:1044200015D18A071ED44A0727D4CA0630D48A0673
:1044300039D44A0642D457E00268D0F838C05368ED
:1044400023F4004343EA0C035360CA07E9D002682F
:10445000D0F82CC0536823F4003343EA0C035360B4
:104460008A07E0D50268D0F830C0536823F480335F
:1044700043EA0C0353604A07D7D50268D0F834C02A
:10448000536823F4802343EA0C035360CA06CED555
:104490000268D0F83CC0936823F4805343EA0C03CD
:1044A00093608A06C5D50268D0F840C0936823F4AB
:1044B000005343EA0C0393604A0615D5D0F800C0B8
:1044C000436CDCF80420B3F5801F22F4801242EA2A
:1044D0000302CCF8042007D1DCF80420836C22F41A
:1044E000C0021A43CCF80420090658BF704701687F
:1044F000C06C4A6822F400221043486070470000F4
:10450000B0B582B004460020C4F89000FDF72AFD43
:10451000216805460A68120737D56FF07E4C2046A1
:104520004FF4001100222B46CDF800C000F03AFBFA
:1045300050B300BF206850E8000F216820F08000D1
:1045400041E80002DAB1206850E8000F216820F04D
:10455000800041E8000292B1206850E8000F216815
:1045600020F0800041E800024AB1206850E8000FC6
:10457000216820F0800041E80002002ADAD10320FF
:10458000202188226BE000BF2168086840075DD5C4
:104590006FF07E4C20464FF4800100222B46CDF870
:1045A00000C000F0FFFA002850D000BF206850E89B
:1045B000000F216820F4907041E80002BAB320682F
:1045C00050E8000F216820F4907041E8000272B3B7
:1045D000206850E8000F216820F4907041E8000244
:1045E0002AB3206850E8000F216820F4907041E859
:1045F0000002002ADAD11AE0206850E8020F216890
:1046000020F0010041E80202DAB1206850E8020F10
:10461000216820F0010041E8020292B1206850E8D0
:10462000020F216820F0010041E802024AB120682F
:1046300050E8020F216820F0010041E80202002A40
:10464000DAD1032020218C2209E000BF2020C4F809
:104650008800C4F88C00002170220020E166A1507F
:10466000002184F8841002B0B0BD0000806A0021EF
:10467000A0F85E10FEF71EBD806A0268D0F8883090
:10468000D0F88CC09168090653D5212B51D1002157
:10469000A0F85610016851E8001F026821F0C0011F
:1046A00042E80013BBB3016851E8001F026821F023
:1046B000C00142E8001373B3016851E8001F0268AB
:1046C00021F0C00142E800132BB3016851E8001F3C
:1046D000026821F0C00142E80013002BDAD11AE091
:1046E000016851E8021F026821F4000142E8021348
:1046F000DBB1016851E8021F026821F4000142E8C1
:10470000021393B1016851E8021F026821F400010D
:1047100042E802134BB1016851E8021F026821F41C
:10472000000142E80213002BDAD12021C0F88810E2
:1047300002689168490640F18480BCF1220F40F084
:1047400080800021A0F85E10016851E8001F026817
:1047500021F4907142E80013DBB1016851E8001FB9
:10476000026821F4907142E8001393B1016851E8A6
:10477000001F026821F4907142E800134BB10168F8
:1047800051E8001F026821F4907142E80013002BE9
:10479000DAD14FF6FE7CCEF6FF7C00BF026852E80D
:1047A000022F036802EA0C0243E80221D9B1016832
:1047B00051E8021F026801EA0C0142E8021393B1BA
:1047C000016851E8021F026801EA0C0142E8021385
:1047D0004BB1016851E8021F026801EA0C0142E88E
:1047E0000213002BDAD1C16E012924D1016851E8EE
:1047F000001F026821F0100142E80013DBB10168DC
:1048000051E8001F026821F0100142E8001393B143
:10481000016851E8001F026821F0100142E800130E
:104820004BB1016851E8001F026821F0100142E815
:104830000013002BDAD12021C0F88C100021C166B2
:104840004167D0F8901041F01001C0F89010FEF7C9
:1048500031BC00000168806A0968890648BFFFF71B
:1048600079B80021A0F85610016851E8021F0268CB
:1048700021F0800142E8021383B3016851E8021F6E
:10488000026821F0800142E802133BB3016851E85D
:10489000021F026821F0800142E80213F3B10168AF
:1048A00051E8021F026821F0800142E80213002B48
:1048B000DAD113E0016851E8001F026841F04001BD
:1048C00042E80013002B08BF7047016851E8001F41
:1048D000026841F0400142E8001393B1016851E8D9
:1048E000001F026841F0400142E800134BB101682B
:1048F00051E8001F026841F0400142E80013002B1C
:10490000D8D17047806AFFF727B8000070B5054618
:1049100005F108041ECC0068194341EA0403EE695E
:10492000046846F6F311CCF6FF7121401943314378
:104930000160416848F2000C21F44051114341608C
:10494000AA69C4F2000C60451CBF296A0A43816849
:104950004FF2FF43C1F2FF13194011438160C16A56
:10496000D5F824E021F00F0141EA0E01C16244F6BE
:10497000FF31C4F2000188424FF0100314DD44F609
:104980000041C4F20001884222D0604528D043F69D
:104990000001C4F20101884238D141F28801C4F219
:1049A00002010B687BA22DE044F20041C4F2000139
:1049B00088421DD044F60001C4F20001884225D18E
:1049C00041F28801C4F2020109680B0916E000BF38
:1049D00041F28801C4F2020109688B090EE000BFB0
:1049E00041F28801C4F2020109688B0A06E000BFA7
:1049F00041F28801C4F2020109688B0845F6F422ED
:104A0000C0F6000203F0030152F82130604542F283
:104A10000040C0F2F40015D0B6F5004F22D1082BAB
:104A20004FF0010100F2AD80DFE803F0065C74ABEB
:104A300064ABABAB720000BFFDF752FB002840F047
:104A40005D809AE0082B4FF0010100F29A80DFE8C8
:104A500003F0059825981B9898982300FDF740FBD4
:104A6000B0B98AE0082B4FF0010100F28A80DFE83C
:104A700003F0053D6F88498888886D00FDF730FB9D
:104A8000002842D179E000BFFDF756FB002874D022
:104A9000D5F824E002E000BF4FF4004045F6DC21E9
:104AA000C0F6000131F81E106A68B0FBF1F002EBAD
:104AB000420188424FF0010163D31303984260D84A
:104AC000010E000210EB520041F100010023FBF740
:104AD0009FFB4FF60052A0F54071C0F20F029142C9
:104AE00049D34DE0FDF712FB40B946E0FDF70EFB60
:104AF00058B942E0FDF720FB00283ED0D5F824E06D
:104B000008E000BFFDF718FBB8B3D5F824E01FE0BC
:104B10004FF4004045F6DC21C0F6000131F81E10CC
:104B20006A68B0FBF1F0510801EB4000B0FBF2F015
:104B30004FF6EF72A0F11001914221D84FF6F071BB
:104B40000140C0F34200084415E000BF4FF40040AC
:104B500045F6DC21C0F6000131F81E104FF6EF7269
:104B6000B0FBF1F0696800EB5100B0FBF1F0A0F18F
:104B70001001914204D82968C860002101E000BFFB
:104B800001214FF00110A866002208466A67AA6753
:104B900070BD00BF01000000040000000200000022
:104BA000080000002DE9F041804600681546C26902
:104BB0000E461140891BB1FA81F149098D4223D17A
:104BC000069C2CB3611C29D1C1693140891BB1FA03
:104BD00081F149098D4217D1C1693140891BB1FA70
:104BE00081F149098D420FD1C1693140891BB1FA68
:104BF00081F149098D4207D1C1693140891BB1FA60
:104C000081F149098D42DFD00020BDE8F08100BF6D
:104C1000FDF7A8F90320BDE8F08100BF1F4607E0BB
:104C2000C0693040801BB0FA80F040098542EBD16A
:104C3000FDF798F9C01BA04200F2AE80D8F8000042
:104C400001684907ECD5402EEAD0802EE8D0C16932
:104C5000090700F1A580C1690905E1D54FF400619C
:104C60000162D8F8000050E8000FD8F8001020F4D6
:104C7000907041E800020AB3D8F8000050E8000F35
:104C8000D8F8001020F4907041E80002B2B1D8F8D2
:104C9000000050E8000FD8F8001020F4907041E8B0
:104CA00000025AB1D8F8000050E8000FD8F8001000
:104CB00020F4907041E80002002AD2D14FF6FE7035
:104CC000CEF6FF70D8F8001051E8021FD8F8002087
:104CD000014042E80213F3B1D8F8001051E8021F76
:104CE000D8F80020014042E80213A3B1D8F8001020
:104CF00051E8021FD8F80020014042E8021353B1E6
:104D0000D8F8001051E8021FD8F80020014042E80E
:104D10000213002BD6D1D8F86C0001282CD1D8F87A
:104D2000000050E8000FD8F8001020F0100041E813
:104D300000020AB3D8F8000050E8000FD8F80010BD
:104D400020F0100041E80002B2B1D8F8000050E8AD
:104D5000000FD8F8001020F0100041E800025AB10E
:104D6000D8F8000050E8000FD8F8001020F010002C
:104D700041E80002002AD2D120200021C8F88C008E
:104D8000C8F86C10C8F87410C8F89000032088F8B0
:104D90008410BDE8F08100BF0320BDE8F08100BFB2
:104DA00008210162D8F8000050E8000FD8F8001080
:104DB00020F4907041E800020AB3D8F8000050E8EF
:104DC000000FD8F8001020F4907041E80002B2B152
:104DD000D8F8000050E8000FD8F8001020F49070C8
:104DE00041E800025AB1D8F8000050E8000FD8F8A6
:104DF000001020F4907041E80002002AD2D14FF652
:104E0000FE70CEF6FF70D8F8001051E8021FD8F8F7
:104E10000020014042E80213F3B1D8F8001051E835
:104E2000021FD8F80020014042E80213A3B1D8F8CD
:104E3000001051E8021FD8F80020014042E8021398
:104E400053B1D8F8001051E8021FD8F800200140F3
:104E500042E80213002BD6D1D8F86C0001282CD1DF
:104E6000D8F8000050E8000FD8F8001020F010002B
:104E700041E800020AB3D8F8000050E8000FD8F863
:104E8000001020F0100041E80002B2B1D8F8000094
:104E900050E8000FD8F8001020F0100041E80002A0
:104EA0005AB1D8F8000050E8000FD8F8001020F0F0
:104EB000100041E80002002AD2D12020C8F88C005E
:104EC00000200821C8F86C00C8F87400C8F89010D9
:104ED00088F884000120BDE8F081000040F2143021
:104EE000C2F20000FEF7E8B8FEE700009FED221ACC
:104EF0009FED222A20EE010AB5EE001A30EE010ADB
:104F0000BDEEC01A11EE100AB5EE400AF1EE10FA2D
:104F1000B8BF013801EE100AB8EEC11A30EE410AEE
:104F200020EE020ABDEEC01A9FED152A11EE100AFE
:104F3000002130EE021AB1EB502F45F614311CBFA0
:104F40000020B0EE410AC0F6000101EE100A01EBAC
:104F50008001B8EE411A30EE410A91ED001A91ED50
:104F6000012AB7EE003A33EE403A23EE011A20EE62
:104F7000020A31EE000A704783F9223E0000004425
:104F8000000000C490ED082A90ED060A90ED071A83
:104F900032EE023A30EE011A30EE030A31EE021A16
:104FA000B1EE400A80ED001A80ED010A80ED022A80
:104FB00019B10021C0E90311416170479FED201A2A
:104FC0009FED202A20EE010ABDEEC01A11EE100A54
:104FD000B5EE400AF1EE10FAB8BF013801EE100A42
:104FE000B8EEC11A30EE410A20EE020ABDEEC01A38
:104FF0009FED152A11EE100A002130EE021AB1EBD6
:10500000502F45F614311CBF0020B0EE410AC0F607
:10501000000101EE100A01EB8001B8EE411A30EEFA
:10502000410A91ED001A91ED012AB7EE003A33EEF4
:10503000403A23EE011A20EE020A31EE000A7047D0
:1050400083F9223E00000044000000C4B6EE001ABE
:1050500020EE811AB4EE410AF1EE10FAC4BF30EE30
:10506000600A7047BEEE001A20EE811AB4EE410AC3
:10507000F1EE10FAB8BF30EE200A704700000000D1
:1050800070B52DED0A8BB0EE409A20EEA00A29EE05
:10509000092A32EE000AB1EEC00A9FED752AB0EE81
:1050A000608A29EE023A20EE824AB0EE41AA84EEEE
:1050B000004A83EE003AB4EE420AB0EE410AF1EE45
:1050C00010FAC4BFB0EE448AB0EE439AFFF776FF01
:1050D000B0EE40BAB0EE4A0AFFF708FF28EE0B1A0E
:1050E00029EE002A32EE41AA28EE000A29EE0B1A18
:1050F00031EE00BA1BEE100A20F000401AEE106AE2
:10510000FBF787FA044626F000400D46FBF781FACC
:105110009FED550B53EC102BFBF764F90026B5EE11
:1051200040AAF1EE10FAC8BF0126B5EE40BA2246F9
:105130002B46F1EE10FAC8BF0436FBF734FA00280C
:105140004CA018BF023650F826409FED521A00EED0
:10515000104AB8EEC00A20EE018AB0EE480AFFF706
:105160002DFFB0EE409AB0EE480AFFF7BFFE9FED6C
:105170004A2A20EE0B0A29EE0A1A38EE028A31EE8C
:1051800040CAB0EE480AFFF7B1FEB0EE409AB0EE6A
:10519000480AFFF713FF2AEE000A2BEE091A31EE38
:1051A000401AB7EE000A30EE4C0A45F68C2130EE7C
:1051B000410A04EB4400C0F600019FED382AB5EE29
:1051C000400A01EB8000F1EE10FAB8BFB0EE420ADF
:1051D00010ED032A10ED023A10ED014A4AF6AB2019
:1051E000C2F6AA2054FB00F000EBD07000EB4000A8
:1051F000A4EB400000EB400001EB800090ED005A72
:10520000B8EEC22AB8EEC55A21EE055A2CEE022A93
:1052100090ED016A32EE052AB6EE005A20EE055AEC
:1052200032EE050AB8EEC32AB8EEC63A90ED027A1D
:1052300021EE033A2CEE022A32EE032A75EE020A20
:10524000B8EEC42AB8EEC73A21EE031A2CEE022AB1
:1052500032EE011A35EE011ABDEC0A8BBDE8704042
:1052600000F082BB00BF00BFAA4C58E87AB6FB3FF3
:10527000AE47613F0400000006000000050000008A
:105280000500000003000000010000000200000013
:1052900002000000920A863F920A86BF00000000CA
:1052A00040F2D430C2F2000090ED001A9FED272AA0
:1052B00030EE410AB4EE420AF1EE10FA02DD9FED43
:1052C000261A08E09FED221AB4EE410AF1EE10FA18
:1052D00003DA9FED201A30EE010A40F24C10C2F2C0
:1052E000000090ED001A40F2E030C2F2000090EDB4
:1052F000002A40F25400C2F2000090ED0A3A90ED0C
:105300000B4A90ED0D6A90ED0C5A90ED0E7A24EE5A
:10531000064A23EE003A33EE043A25EE074A90EDB2
:105320000F5A34EE033A80ED0D0A31EE421AB1EE17
:105330000C2A9FED0A0A73EE050A21EE021A80ED8F
:105340000E6AC0ED0F0AFFF79BBE00BFE4CB16410B
:10535000E4CB16C1E4CB9641E4CB96C1000000003B
:1053600040F2D430C2F2000090ED002A9FED433AA3
:1053700030EE420AB4EE430AF1EE10FA02DD9FED80
:10538000422A08E09FED3E2AB4EE420AF1EE10FAFE
:1053900003DA9FED3C2A30EE020A40F25400C2F2DA
:1053A000000090ED0A2A90ED0B3A90ED0D5A90ED29
:1053B0000C4A90ED0E6A23EE053A22EE002A90ED9B
:1053C0000F7A32EE032A24EE063A33EE022A32EE48
:1053D000072A80ED0D0AB0EEC20A40F2D831B4EED1
:1053E000600AC2F2000180ED0E5A80ED0F2AF1EE44
:1053F00010FAB8BFF0EE400AB1EE600AB5EE402AEE
:1054000091ED002AF1EE10FAC8BFB0EE600A30EE5E
:10541000420A90ED132A90ED143A90ED165A90ED51
:10542000154A90ED176A23EE053A22EE002A90ED18
:10543000187A32EE032A24EE063A33EE022A32EECE
:10544000072A80ED160AB0EEC20AB4EE410A80EDDA
:10545000175AF1EE10FAB8BFB0EE401A9FED0B0AE2
:10546000F1EE410AB5EE402AF1EE10FAC8BFF0EEB7
:10547000410A80ED182A00F04FB800BFE4CB164176
:10548000E4CB16C1E4CB9641E4CB96C1000000000A
:1054900040F2D830C2F2000090ED001A40F24C10F9
:1054A000C2F2000030EE410A90ED001A40F2E03006
:1054B000C2F2000090ED002A40F25400C2F2000057
:1054C00090ED133A90ED144A90ED166A90ED155A4E
:1054D00090ED177A24EE064A23EE003A33EE043AB2
:1054E00025EE074A90ED185A34EE033A80ED160A7D
:1054F00031EE421AB1EE0C2A9FED050A73EE050A51
:1055000021EE021A80ED176AC0ED180AFFF7B8BD48
:1055100000000000000000002DE9F0472DED108B89
:1055200040F2C430C2F2000090ED001AB6EE00CA9C
:1055300040F2C40521EE0C1AC2F2000530EE41DA49
:1055400095ED000A95ED011A95ED033A95ED022AC5
:1055500095ED044A21EE031A20EE0D0A95ED055A49
:1055600030EE010A22EE041A31EE000A40F2540431
:1055700030EE05EAC2F200041EEE100AB0EE60AA98
:1055800084ED02DA85ED043A85ED05EA84ED03EA5F
:10559000FBF73FF89FED560B58EC109B4A464346ED
:1055A000FBF701F89FED56BA0028B0EE4BFA18BF92
:1055B000B0EE4EFA1FEE100AFBF72BF89FED4E0BE4
:1055C00056EC107B3A463346FBF708F89FED4D8AC0
:1055D00040F2380AB0EE489AC2F2000A002818BF1A
:1055E000B0EE4F9A95ED071A9AED002A39EE4E0A61
:1055F00021EE021A84ED050A21EE000A40F2C830BD
:105600003DEE400AC2F2000085ED030A90ED000A6B
:1056100095ED0A1A20EE0C0A3AEE40AA95ED090A19
:1056200095ED0C3A95ED0B2A95ED0D4A21EE031AF6
:1056300020EE0A0A95ED0E5A30EE010A22EE041A07
:1056400031EE000A30EE05CA1CEE100A84ED049A11
:1056500084ED009A84ED06AA85ED0D3A85ED0ECA1B
:1056600084ED07CAFAF7D5FF4A464346FAF79BFF8F
:10567000002818BFB0EE4CBA1BEE100AFAF7C9FFAB
:105680003A463346FAF7AAFF002818BFB0EE4B8A15
:1056900095ED101A9AED012A40F24C1038EE4C0AA2
:1056A00021EE021AC2F2000084ED090A21EE000A7E
:1056B00090ED001A40F2E030C2F2000090ED002AB6
:1056C0003AEE400A85ED0C0A31EE420AB1EE0C1AB0
:1056D00084ED088A20EE011AB0EE490AF0EE480A7D
:1056E00084ED018ABDEC108BBDE8F047FFF7C8BC24
:1056F000CDCCCCCCCCCCEC3FCDCCCCCCCCCCECBF42
:105700006666663F666666BFFCF740FCFEF71EFDF8
:10571000FEF790FAFEF74CFAFEF700FBFEF7CAFC24
:10572000FEF78CFCFEF7C6FBFEF7E2F940F2004004
:10573000C4F600004FF4007181623021C4F202010E
:105740000A68022322F001020A604A6940F2441703
:1057500022F001024A614A68C2F2000763F30F02B5
:105760004A608A6963F30F028A6143F20402C4F259
:10577000010202F108038B60CF6040F24617C2F2CB
:1057800000070F62CB610B6843F002030B600B68EC
:1057900043F001030B604B6943F001034B61116857
:1057A00041F002011160116841F00101116052F8ED
:1057B000041C41F0400142F8041C01210122FCF7C5
:1057C000CBFB4FF0904002210122FCF7C5FB4FF0CC
:1057D000904004210122FCF7BFFB40F27C24C2F27E
:1057E0000004204600210025FDF76CFA2046042124
:1057F000FDF768FA20460821FDF764FA40F2E03030
:1058000044F2AE71C2F20000C3F6E151016040F211
:10581000C820C2F20000FCF705FE6420FCF7A6FADF
:1058200040F25014C2F2000420467F21FBF720F919
:105830002046FBF7A5FDDFED311ADFED313ADFED54
:10584000310A9FED2D0AB0EE001AB0EE602AF0EE9C
:10585000602AB0EE613AB0EE604AF0EE614AB0EE16
:10586000635AF0EE605A00F04FF840F2A8389FED0E
:105870001C0BC2F2000840F2D4399FED1B8B9FED48
:105880001C9B40F2D83AC8F80C500320C2F2000921
:1058900055EC104BC2F2000A88F80000D9F800005D
:1058A000FAF7B7FE22462B46FAF70EFE0646DAF85E
:1058B00000000F46FAF7ADFE53EC182BFAF792FDF5
:1058C00053EC192BFAF700FE32463B46FAF7E3FC9D
:1058D000FAF7B2FEC8F810000820FCF747FADDE737
:1058E000333333333333F3BF333333333333E3BF00
:1058F0000000000000004440EC51383ECDCC4C3E4E
:105900006F12833B0000000070B540F25401C2F2F8
:10591000000140F2C40501F1280001F1400201F14B
:105920004C046431C2F20005C1EC031A05F1180100
:1059300081EC033A05F13C01C1EC034A002182EC01
:10594000030A05F12406FFF71DFB20460021FFF79F
:1059500019FB28460021FFF715FB30460021BDE862
:105960007040FFF70FBB00002DE9F04F81B02DED27
:10597000088B10EE100AB0EE418AB0EE609AB0EEDD
:1059800040AAFAF746FE0446B7EE00BA19EE100A2E
:105990000D463BEE4AAAFAF73CFE824618EE100A84
:1059A0008B463BEE499AFAF734FE9FED2D0B80466D
:1059B000EFF3108072B656EC107B894620462946DC
:1059C0003A4633463BEE488AFAF7EDFD002840F2AE
:1059D0007C20C2F2000004689FED23BA94ED0B1AFC
:1059E000B0EE4B0A18BFB0EE4A0AB8EE411A20EEEC
:1059F000010ABCEEC00A504659463A46334684ED89
:105A00000D0AFAF7D0FD94ED0B1AB0EE4B0A002800
:105A100018BFB0EE490AB8EE411A20EE010ABCEEFA
:105A2000C00A404649463A46334684ED0E0AFAF724
:105A3000BAFD94ED0B0A0028B8EE400A18BFB0EE8C
:105A400048BA2BEE000ABCEEC00A84ED0F0A62B61B
:105A5000BDEC088B01B0BDE8F08F00BF00BF00BFF8
:105A6000CDCCCCCCCCCCEC3FD0CCCC3D02E008C8EB
:105A7000121F08C1002AFAD170477047002001E0C8
:105A800001C1121F002AFBD1704700000100000075
:105A90000000000000000000010000000100000004
:105AA00000000000000000000100000000000000F5
:105AB00000000000010000000100000000000000E4
:105AC00000000000010000000100000000000000D4
:105AD00001000000000000000102030401000200B8
